:020000040800F2
:10000000B01800204D0200082929000877270008B1
:100010002529000843040008152B000800000000F3
:100020000000000000000000000000002F29000870
:1000300089040008000000002D290008312900086B
:1000400067020008670200086702000867020008EC
:1000500067020008670200086702000867020008DC
:1000600067020008670200086702000867020008CC
:1000700067020008670200086702000867020008BC
:100080006904000879040008670200086702000894
:1000900049040008590400086702000867020008C4
:1000A000670200086702000867020008670200088C
:1000B000670200086702000867020008670200087C
:1000C000670200086702000867020008670200086C
:1000D0006702000867020008052B00086702000895
:1000E000670200086702000867020008670200084C
:1000F000670200086702000867020008670200083C
:10010000670200086702000867020008670200082B
:1001100067020008670200084D290008670200080E
:10012000670200086702000867020008670200080B
:1001300067020008670200086702000867020008FB
:1001400067020008670200086702000867020008EB
:1001500067020008670200086702000867020008DB
:1001600067020008670200086702000867020008CB
:10017000670200086702000867020008000000002C
:1001800067020008670200086702000867020008AB
:10019000670200086702000867020008670200089B
:1001A00000000000000000006702000800F002F8F4
:1001B00000F03CF80AA090E8000C82448344AAF1C5
:1001C0000107DA4501D100F031F8AFF2090EBAE8C3
:1001D0000F0013F0010F18BFFB1A43F0010318477B
:1001E000C0320000E0320000103A24BF78C878C165
:1001F000FAD8520724BF30C830C144BF04680C602D
:10020000704700000023002400250026103A28BF74
:1002100078C1FBD8520728BF30C148BF0B60704778
:100220001FB503F027F91FBD10B510BD00F0D4F8BD
:100230001146FFF7F5FF03F0F7F800F0F2F803B40A
:10024000FFF7F2FF03BC00F0F5F800000948804713
:1002500009480047FEE7FEE7FEE7FEE7FEE7FEE7A8
:10026000FEE7FEE7FEE7FEE704480549054A064BC0
:100270007047000039290008AD010008B0120020C5
:10028000B0180020B0140020B014002053EA020C73
:1002900000F069802DE9F04B4FF00006002B1FBFE6
:1002A000B3FA83F503FA05F424FA05F65E4012BFAB
:1002B0001643B2FA82F502FA05F4C5F120051EBF15
:1002C00022FA05FC44EA0C04203556EA044C4FEAB5
:1002D000144418BF641C4FF000084FF0000990420E
:1002E00071EB030C39D3002919BFB1FA81F701FA78
:1002F00007F6B0FA80F700FA07F6C7F120071EBF2D
:1003000020FA07FC46EA0C062037B6FBF4FCA7EB04
:100310000507103F07F01F0BCBF120060CFA0BFB73
:100320002CFA06F644BFB3460026202FA4BF5E4633
:100330004FF0000B5BEA060C08BF4FF0010B19EB06
:100340000B09ABFB027C48EB0608C01B06FB02CC8A
:100350000BFB03CC71EB0C01C1E70B460246414697
:100360004846BDE8F08B13B54FF000004FF0000198
:10037000AFF30080BDE81C4070474FF0000200B5AD
:10038000134694469646203922BFA0E80C50A0E8B8
:100390000C50B1F12001BFF4F7AF090728BFA0E866
:1003A0000C5048BF0CC05DF804EB890028BF40F832
:1003B000042B08BF704748BF20F8022B11F0804F74
:1003C00018BF00F8012B7047704770477047000056
:1003D000004870474C1200207546FFF7F9FFAE4603
:1003E00005006946534620F00700854618B020B541
:1003F000FFF73AFFBDE820404FF000064FF000073E
:100400004FF000084FF0000B21F00701AC46ACE8BC
:10041000C009ACE8C009ACE8C009ACE8C0098D4629
:10042000704710B50446AFF300802046BDE8104089
:10043000FFF705BF01491820ABBEFEE7260002000A
:10044000704700BFFEE7000010B5024800F070F9E9
:1004500010BD0000D810002010B5024800F068F967
:1004600010BD0000D810002010B5024800F094FC28
:1004700010BD00008C11002010B5024800F08CFC6B
:1004800010BD0000EC110020704772B600BFFEE7FF
:10049000F0B504460A46216894F82050012D01D099
:1004A000022D7ED1424901F50071086840F001003B
:1004B0000860086820F47C5008600868566A40EAC2
:1004C00006200860107D00F01F06012000FA06F3E8
:1004D000C8699843C861A1F50071D069C8B9D1F85D
:1004E0000C029843C1F80C02908880B2968940EAC9
:1004F000064601F51070576940F83760108880B2E1
:10050000168940EA064601F51070576900EBC700EE
:100510004660D069012819D1D1F80C021843C1F8FE
:100520000C02908880B2168840EA064601F51070E9
:10053000576940F83760908980B2168940EA0646CC
:1005400001F51070576900EBC7004660906928B943
:10055000D1F804029843C1F8040204E0D1F804027F
:100560001843C1F80402106928B9D1F8140298435D
:10057000C1F8140204E0D1F814021843C1F81402BF
:10058000106A012804D1D1F81C021843C1F81C02DA
:10059000D1F8000220F00100C1F800020020F0BDF7
:1005A000FFE7606A40F4802060620120F7E7000006
:1005B00000640040704770B5044694F82050012D47
:1005C00001D0022D7DD151B92068C06800F0030030
:1005D00080B9606A40F400106062012070BD20683C
:1005E000006900F0030028B9606A40F400106062FE
:1005F0000120F3E7206800F5D87000EB01100068D7
:1006000000F004009060906840B9206800F5D87050
:1006100000EB01100068400D106007E0206800F555
:10062000D87000EB01100068C0085060206800F529
:10063000D87000EB0110006800F00200D060206864
:1006400000F5D87000EB0110406800F00F00106159
:10065000206800F5D87000EB0110406800F47F407E
:10066000000A9061206800F5D87000EB0110406826
:10067000000C5061206800F5D87000EB0110806814
:100680001870206800F5D87000EB0110806800F445
:100690007F40000A5870206800F5D87000EB011008
:1006A000806800F47F00000C9870206800F5D87016
:1006B00000EB01108068000ED870206800F5D8703B
:1006C00000E02FE000EB0110C0681871206800F511
:1006D000D87000EB0110C06800F47F40000A587128
:1006E000206800F5D87000EB0110C06800F47F00AE
:1006F000000C9871206800F5D87000EB0110C068FC
:10070000000ED87131B92068C06840F0200026681A
:10071000F06005E02068006940F020002668306144
:1007200000205BE7606A40F480206062012055E7AA
:100730002DE9F05F04460025206846692068D0F85E
:100740000490206887682068D0F80CA02068D0F852
:1007500010B02068D0F8188006F00100002855D0AD
:1007600007F00100C0B101202168886007F0020095
:1007700018B1204600F09FFA0EE007F0040010B117
:1007800045F4006508E007F0080010B145F4805515
:1007900002E0204600F08EFA07F48070C8B14FF4F2
:1007A00080702168886007F4007018B1204600F05E
:1007B00084FA0EE007F4806010B145F4005508E0BB
:1007C00007F4006010B145F4804502E0204600F0D7
:1007D00073FA07F48030C8B14FF480302168886024
:1007E00007F4003018B1204600F069FA0EE007F473
:1007F000802010B145F4004508E007F4002010B156
:1008000045F4803502E0204600F058FA06F0080072
:1008100038B10AF0100020B145F4007510202168AD
:10082000C86006F0040040B10AF0080028B10820B2
:100830002168C860204600F0B1F906F0020038B126
:100840002068C06800F0030010B1204600F0A8F94D
:1008500006F0400038B10BF0100020B145F480657F
:1008600010202168086106F0200040B10BF008005C
:1008700028B1082021680861204600F0BDF906F083
:10088000100038B12068006900F0030010B1204664
:1008900000F0B4F906F4003040B109F0100028B1BE
:1008A000102021684860204600F0D4F906F480301A
:1008B00040B109F0080028B10820216848602046AE
:1008C00000F0FEF906F4004088B309F0040078B3A4
:1008D00006F4807020B108F0010008B145F0010570
:1008E00006F4007020B108F0020008B145F00205DE
:1008F00006F4806020B108F0040008B145F004055A
:1009000006F40060A0B108F0700088B108F0700033
:10091000402817D006DC10280BD020280CD0302817
:1009200019D10CE0502810D0602814D110E01DE03F
:1009300019E045F008050FE045F010050CE045F022
:10094000200509E045F0400506E045F0800503E09C
:1009500045F4807500E000BF00BF2068806920F08A
:100960007000216888610420216848602DB1606AA8
:10097000284360622046FFF71DFEBDE8F09F70B57A
:1009800004460CB9012070BD94F8200010B920462F
:1009900000F0B0F82068006840F0010021680860AD
:1009A00000F0E8FC05460DE000F0E4FC401B0A28DE
:1009B00008D9606A40F400306062052084F82000A5
:1009C0000120E0E72068406800F001000028EBD03B
:1009D0002068006820F002002168086000F0CAFC6E
:1009E00005460DE000F0C6FC401B0A2808D9606AE5
:1009F00040F400306062052084F820000120C2E746
:100A00002068406800F002000028EBD1207E012819
:100A100006D12068006840F080002168086005E089
:100A20002068006820F0800021680860607E01284E
:100A300006D12068006840F040002168086005E0A9
:100A40002068006820F0400021680860A07E01282E
:100A500006D12068006840F020002168086005E0A9
:100A60002068006820F0200021680860E07E0128EE
:100A700006D12068006820F010002168086005E0B9
:100A80002068006840F0100021680860207F01287D
:100A900006D12068006840F008002168086005E081
:100AA0002068006820F0080021680860607F012845
:100AB00006D12068006840F004002168086005E065
:100AC0002068006820F0040021680860D4E9020171
:100AD000084321690843616908436168491E084366
:100AE0002168C86100206062012084F82000002095
:100AF00049E7000010B586B00446142101A8FFF7AD
:100B00003CFC2349206888423FD100BF0020009070
:100B10002048006840F000701E49086008460068E0
:100B200000F00070009000BF00BF00BF00200090E8
:100B300018481038006840F008001649103908605D
:100B40000846006800F00800009000BF00BF0320C6
:100B500001900220029000200390032004900920BD
:100B6000059001A90C4800F0F7FA00221146142064
:100B700000F08AFC142000F077FC002211461520BA
:100B800000F082FC152000F06FFC06B010BD0000E4
:100B90000064004040380240000C024070470000F2
:100BA00010B504461049206888420CD10F4BA3F1C0
:100BB0001C0200212046FFF7FEFC0C482038816A09
:100BC000001D88470FE00A49206888420BD1094B75
:100BD000A3F11C0200212046FFF7EDFC0548203858
:100BE000816A001D884710BD00640040A0100020ED
:100BF00000680040CC1000207047000010B504468B
:100C00001049206888420CD10F4BA3F11C0201212E
:100C10002046FFF7D0FC0C482038816A001D884729
:100C20000FE00A49206888420BD1094BA3F11C024E
:100C300001212046FFF7BFFC05482038816A001DCE
:100C4000884710BD00640040A010002000680040EC
:100C5000CC100020704770B5044694F8200001289D
:100C600022D1022084F820002068006820F00100D2
:100C70002168086000F07EFB05460DE000F07AFB7D
:100C8000401B0A2808D9606A40F4003060620520E1
:100C900084F82000012070BD2068406800F0010049
:100CA0000028EBD16062F6E7606A40F400206062E1
:100CB0000120F0E7704770477047704770477047F2
:100CC000704770B50446A56D00F054FB064694F8D5
:100CD0003500022808D08020606500BF002084F81D
:100CE000340000BF012070BD2068006820F01600AD
:100CF000216808602068406920F080002168486110
:100D0000206C08B9A06C28B12068006820F00800A9
:100D1000216808602068006820F0010021680860F0
:100D200010E000F027FB801B05280BD92020606510
:100D3000032084F8350000BF002084F8340000BF91
:100D40000320D0E72068006800F001000028E8D107
:100D500094F85C103F208840A860012084F835009A
:100D600000BF002084F8340000BF00BFBBE701468D
:100D700091F83500022803D0802048650120704793
:100D8000052081F835000868006820F001000A6835
:100D900010600020F3E70000F8B504460020009042
:100DA0008C4800684FF41651B0FBF1F7A56D2E6822
:100DB00094F85C1008208840304098B120680068A2
:100DC00000F0040070B12068006820F00400216881
:100DD000086094F85C1008208840A860606D40F0BE
:100DE0000100606594F85C1001208840304068B1D3
:100DF0002068406900F0800040B194F85C10012048
:100E00008840A860606D40F00200606594F85C1056
:100E100004208840304068B12068006800F002007B
:100E200040B194F85C1004208840A860606D40F0E8
:100E30000400606594F85C1010208840304078B35E
:100E40002068006800F0080050B394F85C1010208F
:100E50008840A8602068006800F4802080B1206885
:100E6000006800F4002028B9206CC8B12046216C2D
:100E7000884715E0A06C98B12046A16C88470FE028
:100E80002068006800F4807028B92068006820F0AD
:100E9000080021680860206C10B12046216C88474A
:100EA00094F85C10202088403040002865D02068ED
:100EB000006800F0100000285FD094F85C1020203B
:100EC0008840A86094F83500052828D1206800687B
:100ED00020F01600216808602068406920F080003A
:100EE00021684861206C08B9A06C28B120680068AE
:100EF00020F008002168086094F85C103F208840CA
:100F0000A860012084F8350000BF002084F8340078
:100F100000BF206D10B12046216D8847F8BD2068C4
:100F2000006800F4802080B12068006800F4002090
:100F300028B9606C10B12046616C88471DE0E06BF9
:100F4000D8B12046E16B884717E02068006800F4BC
:100F5000807068B92068006820F01000216808607F
:100F6000012084F8350000BF002084F8340000BF61
:100F7000E06B10B12046E16B8847606D38B3606D5F
:100F800000F00100F0B1052084F835002068006809
:100F900020F001002168086000BF0098401C00900C
:100FA000B84200D905E02068006800F00100002880
:100FB000F3D100BF012084F8350000BF002084F881
:100FC000340000BFE06C10B12046E16C884700BFE0
:100FD000A4E70000140000202DE9F041044600259C
:100FE00000F0C8F9074614B90120BDE8F081606A35
:100FF00000B100BF022084F8350000BF002084F853
:10100000340000BF2068006820F0010021680860FB
:101010000AE000F0AFF9C01B052805D92020606563
:10102000032084F83500E0E72068006800F0010044
:101030000028EED12068056821480540D4E9010167
:101040000843E16808432169084361690843A169CD
:101050000843E1690843216A08430543606A04289C
:1010600003D1D4E90B0108430543206805602068DB
:10107000456925F00705606A0543606A04280DD1BB
:10108000A06A0543E06A48B1204601F08BFE28B112
:1010900040206065012084F83500A6E7206845619E
:1010A000204601F0D5FE064694F85C103F208840AB
:1010B000B06000206065012084F83500002094E7CE
:1010C0003F8010F02DE9F04704460D4616461F46B6
:1010D0004FF00008D4F8589000BF94F8340001286D
:1010E00002D10220BDE8F087012084F8340000BF5F
:1010F00094F83500012825D1022084F8350000201D
:1011000060653B4632462946204601F035FE94F89C
:101110005C103F208840C9F808002068006840F053
:10112000160021680860206C28B12068006840F033
:101130000800216808602068006840F0010021680C
:10114000086006E000BF002084F8340000BF4FF0C4
:1011500002084046C6E70000F8B502460B460025E7
:10116000002400200021E0E0012606FA01F51E68B7
:1011700006EA0504AC4274D11E7906F00306012E7E
:1011800004D01E7906F00306022E13D190684F009A
:101190000326BE40B0434F00DE68BE40304390603F
:1011A000506801268E40B0431E79C6F300168E406B
:1011B000304350601E7906F00306032E09D0D06834
:1011C0004F000326BE40B0434F009E68BE403043F0
:1011D000D0601E7906F00306022E13D1CF0802F16B
:1011E000200656F827004E07F70E0F26BE40B043E4
:1011F0004F07FF0E1E69BE403043CF0802F12006A4
:1012000046F8270010684F000326BE40B0431E7901
:1012100006F003064F00BE40304310605E6806F4DF
:101220004036002E1DD000BF00260096414E366885
:1012300046F480463F4F3E603E46366806F48046A0
:10124000009600BF00BF3C4E8F0856F827008E075F
:10125000370F0F26BE40B043384EB24202D10026AF
:101260002EE061E0364EB24201D1012628E0354E33
:10127000B24201D1022623E0334EB24201D103260D
:101280001EE0324EB24201D1042619E0304EB24285
:1012900001D1052614E02F4EB24201D106260FE0FF
:1012A0002D4EB24201D107260AE02C4EB24201D1A6
:1012B000082605E02A4EB24201D1092600E00A269E
:1012C0008F073F0FBE4030431B4E8F0846F8270064
:1012D000244E3068A0435E6806F4801606B12043B1
:1012E000204E3060361D3068A0435E6806F400165C
:1012F00006B120431B4E361D30601A4E361F306833
:10130000A0435E6806F4003606B12043154E361F32
:101310003060361F3068A0435E6806F4803606B140
:101320002043104E083E3060491C1029FFF41CAFCA
:10133000F8BD000044380240083801400000024077
:101340000004024000080240000C0240001002406D
:101350000014024000180240001C0240002002401D
:1013600000240240083C01400AB1816101E00B0405
:101370008361704701480068704700000800002042
:101380000348006803490978084401490860704728
:10139000080000201000002010B50D48006840F43F
:1013A00000700B4908600846006840F480600860DF
:1013B0000846006840F480700860032000F0A2F83E
:1013C0000F2000F007F800F02BF8002010BD0000FF
:1013D000003C024070B504460E4800784FF47A7124
:1013E000B1FBF0F00C490968B1FBF0F5284600F0BC
:1013F00071FC08B1012070BD102C07D200222146DB
:10140000501E00F041F80548046001E00120F2E7B9
:101410000020F0E710000020140000200C00002045
:1014200008B500BF002000900E48006840F48040DE
:101430000C4908600846006800F48040009000BF36
:1014400000BF00BF00200090081F006840F08050DF
:10145000091F08600846006800F08050009000BF37
:1014600000BF08BD4438024001460846002809DB99
:1014700000F01F0301229A4043099B0003F1E0237F
:10148000C3F8002100BF70472DE9F05F80460D468C
:101490001646002701F0C0FF074639462A46334664
:1014A00001F00700C0F1070ABAF1040F02D94FF0AA
:1014B000040A01E0C0F1070AD14600F1040ABAF1BA
:1014C000070F02D24FF0000A01E0A0F1030AD44650
:1014D0004FF0010A0AFA09FAAAF1010A0AEA020A15
:1014E0000AFA0CFA4FF0010B0BFA0CFBABF1010BF3
:1014F0000BEA030B4AEA0B042146404601F078FF51
:10150000BDE8F09F00BF00F00702064B19684FF6D8
:10151000FF031940044B0B4343EA0221014B1960BE
:1015200000BF70470CED00E00000FA0538B500245C
:1015300000BF002000901D48006840F080501B490B
:1015400008600846006800F08050009000BF00BFAF
:10155000012017490864FFF70DFF044607E0FFF775
:1015600009FF001BB0F57A7F01D9032038BD11486F
:10157000406800F48030B0F5803FF0D101200C4984
:101580004864FFF7F7FE044607E0FFF7F3FE001B91
:10159000B0F57A7F01D90320E8E70648406800F4F7
:1015A0000030B0F5003FF0D10020DFE740380240C6
:1015B00000000E420070004070B504460D460CB9A4
:1015C000012070BD5848006800F00F00A84209D201
:1015D00055490D700846006800F00F00A84201D080
:1015E0000120EEE7207800F0020002281DD12078CB
:1015F00000F00400042805D14C48006840F4E05095
:101600004A490860207800F00800082805D14748BA
:10161000006840F46040454908604448006820F094
:10162000F000A168084341490860207800F00100FB
:10163000A8B36068012807D13C4808380068C0F3A7
:101640004040B8B90120BCE76068022802D0606859
:10165000032807D1354808380068C0F3406048B90E
:101660000120AEE7314808380068C0F3400008B9EF
:101670000120A6E72D48006820F0030061680843B8
:101680002A490860FFF776FE064609E0FFF772FE7A
:10169000801B41F28831884202D9032091E707E09C
:1016A0002248006800F00C006168B0EB810FEDD1BA
:1016B0001D48006800F00F00A84209D91A490D70B2
:1016C0000846006800F00F00A84201D0012078E72A
:1016D000207800F00400042807D11448006820F4A2
:1016E000E050E168084311490860207800F00800E4
:1016F000082808D10D48006820F46040216940EABC
:10170000C1000A49086000F03FF808490968C1F3C0
:101710000311074A515CC840064908600648006842
:10172000FFF758FE00204CE7003C0240083802401A
:1017300086340008140000200C00002001480068D6
:10174000704700001400002000B5FFF7F7FF0449C0
:101750000968C1F38221034A515CC84000BD000002
:10176000083802409634000800B5FFF7E7FF044947
:101770000968C1F34231034A515CC84000BD000012
:1017800008380240963400082DE9F047002400256F
:101790000026A1462548006800F00C0020B104286E
:1017A00005D008283AD105E0DFF8849039E0DFF869
:1017B000849036E01D48001F006800F03F041B487D
:1017C000001F006800F4800078B11A481749091F0B
:1017D0000968C1F38811A0FB01700146224600236D
:1017E0003846FEF753FD05460EE011480F49091F24
:1017F0000968C1F38811A0FB01700146224600234D
:101800003846FEF743FD05460848001F0068C0F350
:101810000140401C4600B5FBF6F902E0DFF81090ED
:1018200000BF00BF4846BDE8F0870000083802400E
:101830000024F400001BB700F8B504460CB90120E1
:10184000F8BD207800F00100002874D0F948006845
:1018500000F00C0004280DD0F648006800F00C00E1
:10186000082813D1F348001F006800F48000B0F589
:10187000800F0BD1EF4808380068C0F340400028C3
:1018800059D06068002856D10120D9E700BF6068B0
:10189000B0F5803F08D1E7480838006840F4803050
:1018A000E449083908601EE06068B0F5A02F0DD14A
:1018B000E0480838006840F48020DE4908390860B4
:1018C0000846006840F4803008600CE0D9480838C9
:1018D000006820F48030D74908390860084600685D
:1018E00020F48020086000BF606890B1FFF742FDDF
:1018F000054606E0FFF73EFD401B642801D90320A2
:101900009EE7CC4808380068C0F340400028F1D07A
:1019100011E0FFF72FFD054606E0FFF72BFD401B0A
:10192000642801D903208BE7C24808380068C0F357
:1019300040400028F1D1207800F0020002285FD159
:10194000BC48006800F00C0058B1BA48006800F0CC
:101950000C0008281CD1B748001F006800F4800064
:10196000B0B9B44808380068C0F3400020B1E0685E
:10197000012801D0012063E7AE480838006820F054
:10198000F800216940EAC100AA490839086037E037
:10199000E06800B30120A8490860FFF7EBFC0546AA
:1019A00006E0FFF7E7FC401B022801D9032047E7C8
:1019B000A04808380068C0F340000028F1D09D48D6
:1019C0000838006820F0F800216940EAC100994910
:1019D0000839086014E0002097490860FFF7CAFC46
:1019E000054606E0FFF7C6FC401B022801D903208C
:1019F00026E7904808380068C0F340000028F1D17D
:101A0000207800F0080008282CD16069A8B10120D6
:101A10008A490860FFF7AEFC054606E0FFF7AAFC1E
:101A2000401B022801D903200AE782486C30006875
:101A3000C0F340000028F1D014E000207F49086086
:101A4000FFF798FC054606E0FFF794FC401B0228D0
:101A500001D90320F4E677486C300068C0F34000F9
:101A60000028F1D1207800F00400042870D100276C
:101A700070483830006800F0805090B900BF0020F6
:101A800000906C483830006840F080506949383127
:101A900008600846006800F08050009000BF00BF5A
:101AA00001276748006800F48070B0B96448006896
:101AB00040F4807062490860FFF75CFC054606E070
:101AC000FFF758FC401B022801D90320B8E65C4808
:101AD000006800F480700028F2D000BFA0680128E0
:101AE00008D154486830006840F00100514968311D
:101AF00008601DE0A06805280DD14E4868300068D8
:101B000040F004004B49683108600846006840F026
:101B1000010008600CE047486830006820F00100D0
:101B20004449683108600846006820F004000860F5
:101B300000BFA068A8B1FFF71DFC054609E0FFF74C
:101B400019FC401B41F28831884202D9032077E614
:101B500026E0384868300068C0F340000028EED026
:101B600013E0FFF707FC054608E0FFF703FC401B06
:101B700041F28831884201D9032061E62D4868305E
:101B80000068C0F340000028EFD1012F07D1294899
:101B90003830006820F0805026493831086000BF96
:101BA000A069002845D02348006800F00C000828F0
:101BB0005DD0A069022845D100201F490866FFF7C3
:101BC000D9FB054606E0FFF7D5FB401B022801D9EB
:101BD000032035E6174808380068C0F34060002845
:101BE000F1D1D4E907010843616A40EA8111012279
:101BF000A06AC2EB500041EA00412C20005D41EA9E
:101C000000600C49091F086001200B490866FFF7B6
:101C1000B1FB054606E0FFF7ADFB401B022801D9EA
:101C200003200DE6034808380068C0F34060002830
:101C3000F1D049E00838024000004742800E474298
:101C400000700040002021490866FFF793FB05461D
:101C500006E0FFF78FFB401B022801D90320EFE5C8
:101C60001B480068C0F340600028F2D12CE0A06956
:101C7000012800D1E4E51648001D0668A069012886
:101C800020D006F48001E06981421BD106F03F01BB
:101C9000206A814216D147F6C0703040616AB0EBCD
:101CA000811F0FD106F440310122A06AC2EB50001F
:101CB000B1EB004F06D106F070612C20005DB1EB56
:101CC000006F01D00120BBE50020B9E500004742CC
:101CD0000038024070B504462546681EB0F1807F8A
:101CE00001D301200FE0681E4FF0E02148610F2171
:101CF0004FF0FF3001F07CFB00204FF0E0218861C5
:101D000007200861002070BD7047704730B502465B
:101D10000B4600BF92F83C00012801D1022030BDE3
:101D2000012082F83C0000BF022082F83D001068CC
:101D300044681068816824F07004186804431068CF
:101D40004460184D1068A8421BD01068B0F1804F55
:101D500017D0154D1068A84213D0144D1068A84232
:101D60000FD0134D1068A8420BD0124D1068A84236
:101D700007D0114D1068A84203D0104D1068A8423A
:101D800005D121F08001586801431068816001206D
:101D900082F83D0000BF002082F83C0000BF00BF79
:101DA000BDE70000000001400004004000080040C2
:101DB000000C0040000401400040014000180040B9
:101DC00010B504460CB9012010BD94F83D0028B9A7
:101DD000002084F83C00204600F026F8022084F819
:101DE0003D00211D206800F0B9FD012084F8460067
:101DF00000BF84F83E0001213F20015540200155DD
:101E00004120015500BF00BF012084F8420043205B
:101E10000155442001554520015500BF012084F89B
:101E20003D000020D0E7000038B504460E49206888
:101E3000884217D100BF002000900C48006840F095
:101E400010000A4908600846006800F01000009081
:101E500000BF00BF002211463620FFF715FB3620D9
:101E6000FFF702FB38BD0000001000404038024080
:101E7000014691F83D00012801D001207047022061
:101E800081F83D000868C06840F001000B68D86028
:101E90001A4B086898421BD00868B0F1804F17D0E1
:101EA000174B0868984213D0164B086898420FD019
:101EB000154B086898420BD0144B0868984207D01D
:101EC000134B0868984203D0124B086898420CD113
:101ED0000868806800F00702062A0CD008680068CD
:101EE00040F001000B68186005E00868006840F0E9
:101EF00001000B6818600020C0E7000000000140EE
:101F00000004004000080040000C004000040140B4
:101F10000040014000180040704710B5044620689A
:101F20000069C0F34000D8B12068C068C0F3400029
:101F3000B0B16FF0020021680861012020772068AD
:101F4000806900F0030018B12046FFF7E5FF05E0C7
:101F5000204600F0ADF8204600F0ABF800202077D6
:101F600020680069C0F38000D8B12068C068C0F361
:101F70008000B0B16FF00400216808610220207772
:101F80002068806900F4407018B12046FFF7C4FF54
:101F900005E0204600F08CF8204600F08AF800208A
:101FA000207720680069C0F3C000D8B12068C068FD
:101FB000C0F3C000B0B16FF00800216808610420D0
:101FC00020772068C06900F0030018B12046FFF7B1
:101FD000A3FF05E0204600F06BF8204600F069F80A
:101FE0000020207720680069C0F30010D8B1206875
:101FF000C068C0F30010B0B16FF010002168086134
:10200000082020772068C06900F4407018B120468D
:10201000FFF782FF05E0204600F04AF8204600F076
:1020200048F8002020772068006900F0010058B1CE
:102030002068C06800F0010030B16FF00100216835
:102040000861204600F036F820680069C0F3C0102F
:1020500058B12068C068C0F3C01030B16FF0800084
:10206000216808612046FFF74FFE20680069C0F331
:10207000801058B12068C068C0F3801030B16FF094
:10208000400021680861204600F032F820680069AD
:10209000C0F3401058B12068C068C0F3401030B1A0
:1020A0006FF02000216808612046FFF72EFE10BD6A
:1020B0007047704710B504460A492068884210D11D
:1020C0000120094908700948007820B1012806D18B
:1020D00000F022FD04E0002000F01EFD00E000BF43
:1020E00000BF10BD001000401C00002018000020A0
:1020F0007047F8B504460E46174694F83E0020286F
:1021000036D106B10FB90120F8BD00BF94F83C00EC
:10211000012801D10220F7E7012084F83C0000BF2C
:1021200020633A463146204600F084FC0546EDB96E
:10213000206B012819D100BF0020009020680068A2
:10214000009020684068009000BF00BF00BF00BF43
:1021500021680C3151E8001F41F0100021680C315A
:1021600041E80002002AF3D100E001252846CBE730
:102170000220C9E770B504460D46504920688842E0
:102180000FD14F482946D0F8082200F582709047B9
:102190004B48B0F8042200F582712046FFF7A9FFF2
:1021A0008AE04849206888420FD147482946D0F83C
:1021B000082200F5827090474348B0F8042200F5E9
:1021C00082712046FFF795FF76E0404920688842FB
:1021D0000FD13F482946D0F8082200F58270904779
:1021E0003B48B0F8042200F582712046FFF781FFDA
:1021F00062E03849206888420FD137482946D0F834
:10220000082200F5827090473348B0F8042200F5A8
:1022100082712046FFF76DFF4EE03049206888420A
:102220000FD12F482946D0F8082200F58270904738
:102230002B48B0F8042200F582712046FFF759FFC1
:102240003AE02849206888420FD127482946D0F82B
:10225000082200F5827090472348B0F8042200F568
:1022600082712046FFF745FF26E02049206888421A
:102270000FD11F482946D0F8082200F582709047F8
:102280001B48B0F8042200F582712046FFF731FFA9
:1022900012E01849206888420ED117482946D0F824
:1022A000082200F5827090471348B0F8042200F528
:1022B00082712046FFF71DFF70BD00000010014035
:1022C00020000020004400402C0200200048004074
:1022D00038040020004C004044060020005000401C
:1022E00050080020001401405C0A002000780040E3
:1022F000680C0020007C0040740E00207047000035
:102300002DE9F84F0446206805682068C6682068F3
:1023100047694FF00009CA4605F00F09B9F1000FEF
:102320000AD105F0200038B106F0200020B1204687
:1023300000F0E6FEBDE8F88FB9F1000F7CD007F0A1
:10234000010018B906F49070002875D005F001005E
:1023500030B106F4807018B1206C40F001002064A8
:1023600005F0040030B107F0010018B1206C40F016
:102370000200206405F0020030B107F0010018B13E
:10238000206C40F00400206405F0080048B106F01D
:10239000200010B907F0010018B1206C40F00800CF
:1023A0002064206C002846D005F0200028B106F0FB
:1023B000200010B1204600F0A3FE20684069C0F361
:1023C000801A206C00F0080010B9BAF1000F2DD06F
:1023D000204600F051FF2068406900F0400040288E
:1023E00020D100BF00BF2168143151E8001F21F047
:1023F00040002168143141E80002002AF3D100BFF7
:10240000A06B50B17548A16B0865A06BFEF7AFFCDF
:1024100088B1A06B016D88470DE02046FFF76EFF85
:1024200009E009E02046FFF769FF04E02046FFF7D6
:1024300065FF002020647DE7206B012876D105F040
:102440001000002872D006F010000028FAD000BF5B
:10245000002000902068006800902068406800908C
:1024600000BF00BF2068406900F0400040285ED1F6
:10247000A06B006840681FFA80F8B8F1000F54D0D4
:10248000A08D404551DDA4F82E80A06BC069B0F549
:10249000807F43D000BF00BF21680C3151E8001F8E
:1024A00021F4807021680C3141E80002002AF3D148
:1024B00000BF00BF00BF2168143151E8001F21F0A8
:1024C00001002168143141E80002002AF3D100BF65
:1024D00000BF00BF2168143151E8001F21F0400007
:1024E0002168143141E80002002AF3D100BF202006
:1024F00084F83E000020206300BF00BF21680C313B
:1025000051E8001F21F0100021680C3141E8000261
:10251000002AF3D100BFA06BFEF7D3FBA08DE28DA4
:10252000801A81B22046FFF725FE03E740E0A08D28
:10253000E18D401A1FFA80F8E08DC0B3B8F1000FAA
:1025400035D000BF00BF21680C3151E8001F21F4D5
:10255000907021680C3141E80002002AF3D100BFDD
:1025600000BF00BF2168143151E8001F21F00100B5
:102570002168143141E80002002AF3D100BF202075
:1025800084F83E000020206300BF00BF21680C31AA
:1025900051E8001F21F0100021680C3141E80002D1
:1025A000002AF3D100BF41462046FFF7E3FDC1E614
:1025B00005F0800030B106F0800018B1204600F030
:1025C0001BFEB7E605F0400030B106F0400018B140
:1025D000204600F0F2FEADE600BFABE6DB330008BC
:1025E00010B504460CB9012010BDA06900B100E08F
:1025F00000BF94F83D0028B9002084F83C00204634
:1026000000F028F8242084F83D002068C06820F4F9
:1026100000502168C860204600F05CFC206800691A
:1026200020F49040216808612068406920F02A0069
:10263000216848612068C06840F400502168C86083
:1026400000202064202084F83D0084F83E00002013
:10265000CAE7000010B586B00446142101A8FDF7B2
:102660008CFE3D492068884273D100BF0020009055
:102670003A48006840F4003038490860084600686D
:1026800000F40030009000BF00BF00BF00200090A9
:1026900032481038006840F00800304910390860AE
:1026A0000846006800F00800009000BF00BF6020EE
:1026B0000190022002900020039003200490072044
:1026C000059001A92648FEF747FD264826490860DF
:1026D0004FF000604860002123488160C1604FF4E2
:1026E00080610161002141618161C16101624162DA
:1026F000FEF772FC08B1FDF7C8FE00BF1A48A063E0
:10270000846300BF17481830184908604FF0006014
:1027100048604021154881600021C1604FF480610C
:102720000161002141618161C16101624162FEF785
:1027300053FC08B1FDF7A9FE00BF0C486063846339
:1027400000BF002211462620FEF79EFE2620FEF73F
:102750008BFE06B010BD000000440040403802402F
:10276000000C0240886002408C110020EC11002017
:1027700070477047704700BFFEE7000010B50E4875
:102780000E4908600920486000210C488160C16042
:102790004FF480310161090141610021017601217D
:1027A000417600218176C17601774177FEF7E7F81F
:1027B00008B1FDF76AFE10BD00640040D81000208B
:1027C00008B500BF002000900E48006840F40010DB
:1027D0000C4908600846006800F40010009000BF33
:1027E00000BF002211461020FEF74EFE1020FEF71B
:1027F0003BFE002211461120FEF746FE1120FEF797
:1028000033FE08BD3038024000B587B0142102A85D
:10281000FDF7B3FD00BF002001901F48006840F0A5
:1028200001001D4908600846006800F001000190A1
:1028300000BF00BF00BF002001900846006840F0C4
:10284000080008600846006800F00800019000BF1A
:1028500000BF00BF002001900846006840F08000E3
:1028600008600846006800F08000019000BF00BFCB
:1028700000223C210948FEF777FD3C200290012010
:102880000390022004900020059002A90348FEF75F
:1028900063FC07B000BD000030380240001C02405D
:1028A0001CB50020009001900E480F490860472099
:1028B000486000210C48816040F2E731C16000218E
:1028C0008161FFF77DFA08B1FDF7DFFD0020009080
:1028D000019069460448FFF719FA08B1FDF7D5FDE4
:1028E0001CBD0000001000400011002010B50B4876
:1028F0000B4908604FF4E1304860002108488160CE
:10290000C16001610C21416100218161C161FFF75A
:1029100067FE08B1FDF7B9FD10BD0000004400409E
:102920004811002000BFFEE700BFFEE77047704778
:1029300010B5FEF725FD10BD0348006840F4700097
:10294000014908607047000088ED00E010B50248BA
:10295000FFF7E3FA10BD00000011002010B5026877
:10296000294B98420ED0B0F1804F0BD0274B9842A4
:1029700008D0274B984205D0264B984202D0264BD0
:10298000984203D122F070024B681A431E4B9842C2
:1029900020D0B0F1804F1DD01C4B98421AD01C4B58
:1029A000984217D01B4B984214D01B4B984211D021
:1029B0001A4B98420ED01A4B98420BD0194B9842A2
:1029C00008D0194B984205D0184B984202D0184BAA
:1029D000984203D122F44072CB681A4322F080035C
:1029E0004C6943EA040202608B68C3620B6883622D
:1029F000054B984202D0084B984201D10B69036302
:102A00000123436110BD00000000014000040040AC
:102A100000080040000C004000040140004001405C
:102A2000004401400048014000180040001C0040E4
:102A30000020004077B581B0044615460298A06298
:102A4000A58500202064222084F83E002A48A16B3E
:102A5000C8632A48A16B08642948A16BC864002098
:102A6000A16B086502AE32682368191D2B46A06B66
:102A7000FEF728FB00BF002000902068006800904F
:102A800020684068009000BF00BF00BF002084F8AD
:102A90003C0000BF206970B100BF00BF21680C314D
:102AA00051E8001F41F4807021680C3141E80002B8
:102AB000002AF3D100BF00BF00BF2168143151E8E4
:102AC000001F41F001002168143141E80002002A92
:102AD000F3D100BF00BF00BF2168143151E8001FCF
:102AE00041F040002168143141E80002002AF3D18E
:102AF00000BF002004B070BD0B330008593200083D
:102B0000852E000810B50248FFF7FAFB10BD000043
:102B10004811002000BFFEE710B5044622462021E0
:102B20000148FEF721FC10BD001C024000B593B027
:102B3000302107A8FDF721FC142102A8FDF71DFC98
:102B400000BF002001902648006840F080502449D2
:102B500008600846006800F08050019000BF00BF88
:102B600000BF002001901F48006840F440401D490C
:102B700008600846006800F44040019000BF00BFB4
:102B8000012007900004089002200D9041050E914D
:102B900006210F91B421109102211191042112916B
:102BA00007A8FEF749FE08B1FDF76FFCFEF7BEFC73
:102BB00008B1FDF76AFC0F2002900220039000206C
:102BC00004904FF4A05005904FF4805006900521DA
:102BD00002A8FEF7F1FC08B1FDF757FC13B000BDE9
:102BE0004038024000700040F0B58BB007460C46FC
:102BF00015461E4604F0020080B1E8040190E8008A
:102C000004F0030140EA41000290F0040390F00058
:102C100004F0030140EA4100049009E068010190DA
:102C2000A007400F029070010390A007400F04908E
:102C3000E0100690C4F38000059001200990002068
:102C40000790012008900E200A9001A93846FDF750
:102C50001FFC0BB0F0BD0000204A01681160016844
:102C6000B1F5807F38D1017F1D4A1170302924D001
:102C700008DC102911D011290BD0202915D02129C9
:102C800027D10EE0312914D040291ED0412920D16E
:102C900017E00122134B1A701CE00022114B1A702E
:102CA00018E00122104B1A7014E000220E4B1A702B
:102CB00010E001220D4B1A700CE000220B4B1A7031
:102CC00008E001220A4B1A7004E00022084B1A7037
:102CD00000E000BF00BF00BF7047000004000020FC
:102CE0000000002018000020190000201A00002019
:102CF0001B00002070B504460D462046FDF7ABFFD3
:102D00002068406940F002002168486120684069FD
:102D100040F01000216848611349206888420FD1B3
:102D200012480460856200231A4619462046FFF7C0
:102D30005BFF00231A460C212046FFF755FF12E0E7
:102D40000B49206888420ED10A480460856200233E
:102D50001A4670212046FFF747FF00231A467C21C0
:102D60002046FFF741FF70BD006400408010002046
:102D700000680040AC10002030B50468246824F4DA
:102D8000802405682C60046863608468402C04D14A
:102D90000468A2600468E16003E00468A16004685C
:102DA000E26030BD014600208A6A8B69CBB932B13E
:102DB000012A0DD0022A03D0032A10D10EE000BF51
:102DC000CB6A03F08073B3F1807F00D1012007E06C
:102DD000CB6AB3F1C07F00D1012001E000E000BF69
:102DE00034E08B69B3F5005F1AD132B1012A07D004
:102DF000022A03D0032A11D10AE000BF01200EE00D
:102E0000CB6A03F08073B3F1807F00D1012006E02C
:102E1000CB6AB3F1C07F00D1012000E000BF15E014
:102E200032B1012A05D0022A04D0032A0CD103E0D2
:102E300000BF00BF012008E0CB6A03F08073B3F14C
:102E4000807F00D1012000E000BF00BF704700007C
:102E50000146087810381823B0FBF3F20848805C6C
:102E6000C865032A05D908686FF30900001D886545
:102E700003E008686FF309008865886D70470000FB
:102E80007E34000870B506460025B46B20684069A2
:102E9000C0F3C01594F83D00212805D125B10020CC
:102EA000E084204600F01EFA20684069C0F38015D7
:102EB00094F83E00222805D125B10020E085204667
:102EC00000F0DAF9206C40F0100020642046FFF793
:102ED00015FA70BD2DE9F84F04462068006920F40A
:102EE0004050E1680843216808612169A0680843EF
:102EF00061690843E169084300902068C06849F2AD
:102F00000C618843009908432168C86020684069C3
:102F100020F44070A169084321684861764920681F
:102F2000884203D075492068884203D1FEF71CFC13
:102F3000814602E0FEF708FC8146E069B0F5004FEB
:102F40006CD102206168A0FB015003461920A9FB47
:102F5000007001462A463846FDF798F96421B0FB17
:102F6000F1F04FEA001A02206168A0FB01510B4604
:102F70001920A9FB00712A463846FDF787F98346D8
:102F800002206168A0FB015003461920A9FB0071D3
:102F90002A463846FDF77AF96421B0FBF1F000EBE0
:102FA000C00101EB0010ABEB8000322101EBC0004F
:102FB0006421B0FBF1F000F0F8000AEB400A0220B7
:102FC0006168A0FB015003461920A9FB007001466F
:102FD0002A463846FDF75AF9834602206168A0FB6D
:102FE000015003461920A9FB00712A463846FDF717
:102FF0004DF96421B0FBF1F000EBC00101EB0010D2
:10300000ABEB8000322101EBC0006421B0FBF1F09A
:1030100000F007005044216888606AE0042061687D
:10302000A0FB015003461920A9FB007001462A4667
:103030003846FDF72BF9824604206168A0FB015059
:1030400003461920A9FB007001462A463846FDF7C1
:103050001DF96421B0FBF1F000EBC00101EB0010A1
:10306000AAEB8000322101EB00106421B0FBF1F0EB
:1030700000F0F00A04206168A0FB017003461920EB
:10308000A9FB00513A462846FDF700F96421B0FB40
:10309000F1F00AEB001A04206168A0FB01510B4615
:1030A0001920A9FB00712A463846FDF7EFF8834640
:1030B00004206168A0FB015003461920A9FB0070A1
:1030C00001462A463846FDF7E1F86421B0FBF1F0ED
:1030D00000EBC00101EB0010ABEB8000322101EBF3
:1030E00000106421B0FBF1F000F00F0050442168A3
:1030F0008860BDE8F88F0000001001400014014016
:10310000F8B5044694F83E00222873D1A068B0F5C3
:10311000805F0CD1206950B90025A66A20684068FC
:10312000C0F308003080A06A801CA06215E0A56A88
:103130000026A068B0F5805F03D0A06828B9206998
:1031400018B920684068287004E02068406800F0E2
:103150007F002870A06A401CA062E08D401E80B2F3
:10316000E085002844D12068C06820F02000216854
:10317000C8602068C06820F480702168C86020683A
:10318000406920F0010021684861202084F83E0059
:10319000206B012826D10020206300BF00BF2168DA
:1031A0000C3151E8001F21F0100021680C3141E87A
:1031B0000002002AF3D100BF2068006800F0100070
:1031C00010280AD100BF00200090206800680090FD
:1031D00020684068009000BF00BFA18D2046FEF728
:1031E000C9FF02E02046FFF7C3FA0020F8BD01E066
:1031F0000020FBE70220F9E7014691F83D00212875
:1032000028D18868B0F5805F0BD1086948B90A6A8F
:103210001088C0F308000B685860086A801C0862B8
:1032200005E00B6A581C086218780B685860C88C57
:10323000401E80B2C88458B90868C06820F0800079
:103240000B68D8600868C06840F040000B68D86020
:10325000002070470220FCE770B50546AC6B206B80
:10326000012805D1A08D41082046FEF783FF02E02A
:103270002046FFF77EFA70BD00BF00BF02680C3227
:1032800052E8002F22F4907102680C3242E80013D9
:10329000002BF3D100BF00BF00BF0268143252E818
:1032A000002F22F001010268143242E80013002BC3
:1032B000F3D100BF016B01290ED100BF00BF02682E
:1032C0000C3252E8002F22F0100102680C3242E862
:1032D0000013002BF3D100BF202180F83E10002105
:1032E0000163704700BF00BF02680C3252E8002F34
:1032F00022F0C00102680C3242E80013002BF3D127
:1033000000BF202180F83D10704770B50546AC6BBA
:103310002868006800F48070002842D1E08500BF72
:1033200000BF21680C3151E8001F21F48070216832
:103330000C3141E80002002AF3D100BF00BF00BFFA
:103340002168143151E8001F21F001002168143177
:1033500041E80002002AF3D100BF00BF00BF21688E
:10336000143151E8001F21F040002168143141E878
:103370000002002AF3D100BF202084F83E00206B19
:1033800001280ED100BF00BF21680C3151E8001F99
:1033900021F0100021680C3141E80002002AF3D12D
:1033A00000BF206B012804D1A18D2046FEF7E2FE6C
:1033B00002E02046FFF7DCF970BD10B50446206836
:1033C000C06820F040002168C860202084F83D00DB
:1033D0002046FFF7CFF9002010BD70B50546AC6B55
:1033E0000020E085E0842046FEF788FF70BD0000E5
:1033F00010B5002804DB0A07130E054A135406E033
:103400000A07140E034A00F00F031B1FD45410BD0B
:1034100000E400E018ED00E002480068C0F302207C
:10342000704700000CED00E0FDF7B6FFFFF77EFBF4
:10343000FFF7EAF9FFF7C4F9FFF7A0F9FFF756FA2B
:10344000FFF72EFA0848FEF713FD08490848FFF772
:1034500051FC47F6FF734FF4807204210448FFF7D4
:10346000C3FB00BFFEE7000000110020592C00083C
:10347000D81000204FF04070E1EE100A70470006AF
:1034800010160006101600000000000000000102E7
:1034900003040607080900000000010203040000FD
:1034A000C03400080000002020000000E8010008EF
:1034B000E0340008200000209018000004020008FA
:1034C00000000000000000000000000010000000EC
:1034D000010000000024F4000000000000000000D3
:04000005080001AD41
:00000001FF
